:100000000C942A000C9447000C9447000C94470071
:100010000C9447000C9447000C9447000C94470044
:100020000C9447000C9447000C9447000C94470034
:100030000C9447000C9447000C9447000C94470024
:100040000C9447000C9447000C9447000C94470014
:100050000C94470011241FBECFE5D8E0DEBFCDBF12
:1000600010E0A0E6B0E0E4EAFFE102C005900D92E6
:10007000A039B107D9F710E0A0E9B0E001C01D92A6
:10008000A43FB107E1F70E944F0F0C94D00F0C94DE
:100090000000EF92FF920F931F937B018C0120E0F1
:1000A00030E040E05FE40E94490388238CF0C801FF
:1000B000B70120E030E040E05FE40E94C1010E940F
:1000C000A9039B01AC01205030404040504806C07D
:1000D000C801B7010E94A9039B01AC01B901CA0183
:1000E0001F910F91FF90EF900895A0E0B0E0EBE733
:1000F000F0E00C94990FDC012B01FA019C919230F5
:1001000008F439C1EB018881823008F433C194309E
:1001100069F4843009F02FC111969C91119789815F
:10012000981709F428C1A7E7B0E025C1843009F485
:1001300021C18230A9F4923009F01DC19A01AD01AC
:1001400088E0EA010990AE01E90109929E0181501F
:10015000C1F7E201898111969C918923818308C1AD
:10016000923009F407C112962D903C901397EB0141
:100170008A819B811496AD90BD90CD90DC901797AD
:10018000EC80FD800E811F819101281B390BB90184
:1001900037FF04C066277727621B730B6032710537
:1001A0000CF061C0121613066CF537014801062EDB
:1001B00004C096948794779467940A94D2F721E0C8
:1001C00030E040E050E004C0220F331F441F551FB1
:1001D0006A95D2F721503040404050402E213F21B7
:1001E00040235123211531054105510521F021E01E
:1001F00030E040E050E079018A01E628F72808293C
:1002000019293CC0232BD1F1260E371E350146019A
:10021000062E04C096948794779467940A94D2F734
:1002200021E030E040E050E004C0220F331F441FC3
:10023000551F6A95D2F721503040404050402A2146
:100240003B214C215D21211531054105510521F04E
:1002500021E030E040E050E059016A01A628B728CB
:10026000C828D9280BC0821593052CF01C01AA249C
:10027000BB24650103C0EE24FF24870111969C91E5
:10028000D20111968C91981709F445C0992339F041
:10029000A80197012A193B094C095D0906C0A6016E
:1002A00095012E193F09400B510B57FD08C01182D3
:1002B0003382228224833583468357831DC081E0A5
:1002C00081833382228288279927DC01821B930B4A
:1002D000A40BB50B84839583A683B7830DC0220F2F
:1002E000331F441F551F24833583468357838281E0
:1002F000938101979383828324813581468157813D
:10030000DA01C9010197A109B1098F5F9F4FAF4F72
:10031000BF4328F30BC0918333822282EA0CFB1C7B
:100320000C1D1D1DE482F5820683178383E0808304
:10033000248135814681578157FF1AC0C901AA27F8
:1003400097FDA095BA2F81709070A070B0705695EF
:10035000479537952795822B932BA42BB52B848318
:100360009583A683B7838281938101969383828349
:10037000DF0101C0D201CD01CDB7DEB7E2E10C94BF
:10038000B50FA0E2B0E0E7ECF1E00C94A50F6983B3
:100390007A838B839C832D833E834F835887E9E048
:1003A000EE2EF12CEC0EFD1ECE010196B7010E943F
:1003B000D2048E010F5E1F4FCE010596B8010E9438
:1003C000D2048A8991E089278A8BC701B801AE01DE
:1003D000475E5F4F0E9475000E94FD03A096E6E015
:1003E0000C94C10FA0E2B0E0E8EFF1E00C94A50F8F
:1003F00069837A838B839C832D833E834F835887C5
:10040000F9E0EF2EF12CEC0EFD1ECE010196B701A6
:100410000E94D2048E010F5E1F4FCE010596B801D7
:100420000E94D204C701B801AE01475E5F4F0E942F
:1004300075000E94FD03A096E6E00C94C10FA0E2B7
:10044000B0E0E5E2F2E00C94990F69837A838B8344
:100450009C832D833E834F835887CE010196BE0136
:10046000675F7F4F0E94D204CE010596BE016F5E8A
:100470007F4F0E94D2049985923088F0898982301A
:10048000C8F0943019F4823051F404C0843029F457
:10049000923081F487E790E0C6C0923049F420E0C2
:1004A0009A858A89981321E02A87CE010996BBC0D4
:1004B000823049F420E09A858A89981321E02A8BBA
:1004C000CE014196B0C02D843E844F8458886D88FB
:1004D0007E888F88988CEE24FF248701AA24BB2471
:1004E000650140E050E060E070E0E0E0F0E0C10174
:1004F00081709070892BE9F0E60CF71C081D191D1E
:100500009A01AB012A0D3B1D4C1D5D1D80E090E062
:10051000A0E0B0E0E614F7040805190520F481E036
:1005200090E0A0E0B0E0BA01A901480F591F6A1F8E
:100530007B1FAA0CBB1CCC1CDD1C97FE08C081E0F5
:1005400090E0A0E0B0E0A82AB92ACA2ADB2A3196B6
:10055000E032F10549F0660C771C881C991C569412
:10056000479437942794C3CFFA85EA892B893C892D
:100570008B859C85280F391F2E5F3F4F17C0CA01FE
:1005800081709070892B61F016950795F794E79428
:1005900080E090E0A0E0B0E8E82AF92A0A2B1B2BC3
:1005A00076956795579547952F5F3F4F77FDE7CF36
:1005B0000CC0440F551F661F771F17FD4160EE0CDE
:1005C000FF1C001F111F21503040403090E05907A0
:1005D00090E0690790E4790760F32B8F3C8FDB0193
:1005E000CA018F779070A070B07080349105A1051A
:1005F000B10561F447FD0AC0E114F10401051105DC
:1006000029F0405C5F4F6F4F7F4F40781A8EFE1786
:1006100011F081E08A8F4D8F5E8F6F8F78A383E01A
:10062000898FCE0149960E94FD03A096E2E10C94C9
:10063000B50FA8E1B0E0EFE1F3E00C94A50F6983FA
:100640007A838B839C832D833E834F83588789E0F5
:10065000E82EF12CEC0EFD1ECE010196B7010E9492
:10066000D2048E010F5E1F4FCE010596B8010E9485
:10067000D2048985823040F08989823028F0C70110
:10068000B8010E944A0501C08FEF6896E6E00C941D
:10069000C10FA8E1B0E0EFE4F3E00C94A50F69838B
:1006A0007A838B839C832D833E834F83588789E095
:1006B000E82EF12CEC0EFD1ECE010196B7010E9432
:1006C000D2048E010F5E1F4FCE010596B8010E9425
:1006D000D2048985823040F08989823028F0C701B0
:1006E000B8010E944A0501C08FEF6896E6E00C94BD
:1006F000C10FA8E1B0E0EFE7F3E00C94A50F698328
:100700007A838B839C832D833E834F83588789E034
:10071000E82EF12CEC0EFD1ECE010196B7010E94D1
:10072000D2048E010F5E1F4FCE010596B8010E94C4
:10073000D2048985823040F08989823028F0C7014F
:10074000B8010E944A0501C081E06896E6E00C9479
:10075000C10FACE0B0E0EFEAF3E00C94A90F6983BD
:100760007A838B839C83CE010196BE016B5F7F4FA2
:100770000E94D2048D81823061F1823050F1843048
:1007800021F48E81882351F12EC02F81388537FDC9
:1007900020C06E812F3131051CF06623F9F023C093
:1007A0008EE190E0821B930B29853A854B855C8511
:1007B00004C056954795379527958A95D2F76623B5
:1007C000B1F050954095309521953F4F4F4F5F4F79
:1007D0000EC020E030E040E050E009C02FEF3FEFD6
:1007E0004FEF5FE704C020E030E040E050E8B9019F
:1007F000CA012C96E2E00C94C50FDF92EF92FF92B3
:100800000F931F93FC01E480F58006811781D1804E
:100810008081823048F480E090E0A0E1B0E0E82AF6
:10082000F92A0A2B1B2BA5C0843009F49FC0823003
:1008300021F4EE24FF24870105C0E114F104010531
:10084000110519F4E0E0F0E096C0628173819FEF3A
:10085000623879070CF05BC022E83FEF261B370BAC
:100860002A3131052CF020E030E040E050E02AC091
:10087000B801A701022E04C0769567955795479554
:100880000A94D2F781E090E0A0E0B0E004C0880FC5
:10089000991FAA1FBB1F2A95D2F70197A109B10979
:1008A0008E219F21A023B1230097A105B10521F03E
:1008B00081E090E0A0E0B0E09A01AB01282B392B59
:1008C0004A2B5B2BDA01C9018F779070A070B07052
:1008D00080349105A105B10539F427FF09C0205CDA
:1008E0003F4F4F4F5F4F04C0215C3F4F4F4F5F4F13
:1008F000E0E0F0E02030A0E03A07A0E04A07A0E402
:100900005A0710F0E1E0F0E079018A0127C0603871
:10091000710564F5FB01E158FF4FD801C7018F77DE
:100920009070A070B07080349105A105B10539F4C4
:10093000E7FE0DC080E490E0A0E0B0E004C08FE3EB
:1009400090E0A0E0B0E0E80EF91E0A1F1B1F17FFA1
:1009500005C016950795F794E794319687E01695AC
:100960000795F794E7948A95D1F705C0EE24FF2404
:100970008701EFEFF0E06E2F679566276795902F60
:100980009F77D794DD24D7948E2F8695492F462BB9
:10099000582F5D29B701CA011F910F91FF90EF9069
:1009A000DF900895FC01DB01408151812281622F9B
:1009B0006F7770E0221F2227221F9381892F880FD3
:1009C000822B282F30E0991F9927991F11969C930D
:1009D000119721153105A9F54115510561057105DD
:1009E00011F482E037C082E89FEF13969C938E93B8
:1009F00012979A01AB0167E0220F331F441F551F66
:100A00006A95D1F783E08C930DC0220F331F441FEA
:100A1000551F12968D919C911397019713969C9355
:100A20008E931297203080E0380780E0480780E4FA
:100A3000580758F314962D933D934D935C93179755
:100A400008952F3F310579F4411551056105710570
:100A500019F484E08C93089564FF03C081E08C93C3
:100A600012C01C9210C02F57304013963C932E9307
:100A7000129783E08C9387E0440F551F661F771F02
:100A80008A95D1F7706414964D935D936D937C9322
:100A9000179708951F93DC01FB019C91923008F495
:100AA00047C08081823008F443C0943051F41196DD
:100AB0001C91843099F58181682F70E0611B710968
:100AC0003FC0843021F0923031F48230B9F181811D
:100AD000882389F12DC011961C9111978230F1F075
:100AE00081811817D9F412962D913C911397828128
:100AF00093818217930794F028173907BCF0149656
:100B00008D919D910D90BC91A02D248135814681C0
:100B10005781281739074A075B0718F4112341F05A
:100B20000AC082179307A407B50740F4112319F0F0
:100B300061E070E005C06FEF7FEF02C060E070E041
:100B4000CB011F910895DF93CF930F92CDB7DEB7FE
:100B5000ABE2B0E0EBE2F0E080818D7F8C93E9E2E4
:100B6000F0E083E3808319828981806889838981A9
:100B70008F7B898389818F7D898389818F7E89831A
:100B80008981877F89838981846089838981826063
:100B90008983AAE2B0E0EAE2F0E080818B7F8C9367
:100BA000E0E4F0E089818083AAE2B0E0EAE2F0E0EC
:100BB000808188608C93AAE2B0E0EAE2F0E0808174
:100BC00080618C930F90CF91DF910895DF93CF9345
:100BD000CDB7DEB7EBE2F0E080818823DCF7ECE212
:100BE000F0E08081CF91DF910895DF93CF930F9252
:100BF000CDB7DEB78983EBE2F0E080818295869500
:100C00008770882F90E0817090700097A1F3ECE2DC
:100C1000F0E0898180830F90CF91DF910895DF9379
:100C2000CF9300D00F92CDB7DEB79B838A83198212
:100C30000EC08981282F30E08A819B81FC01E20F60
:100C4000F31F80810E94F50589818F5F89838981E7
:100C5000282F30E08A819B81FC01E20FF31F808105
:100C6000882339F70F900F900F90CF91DF9108955F
:100C7000DF93CF9300D0CDB7DEB71A820E94E6058E
:100C800089830EC08A81882F90E0FC01E057FF4FD6
:100C9000898180830E94E60589838A818F5F8A83A8
:100CA00089818D3079F780E990E00F900F90CF9196
:100CB000DF910895DF93CF9300D000D00F92CDB78E
:100CC000DEB789836A834B838981282F30E03D8397
:100CD0002C838C819D818130910509F447C02C8142
:100CE0003D81223031052CF48C819D81009771F07B
:100CF000CBC02C813D812230310509F467C08C8145
:100D00009D818330910509F491C0BEC08B818823F9
:100D1000A9F4AAE3B0E0EAE3F0E08081482F8A81F9
:100D2000282F30E081E090E0022E02C0880F991F4A
:100D30000A94E2F7809584238C93A6C08B8181303E
:100D400009F0A2C0AAE3B0E0EAE3F0E08081482F16
:100D50008A81282F30E081E090E0022E02C0880FC7
:100D6000991F0A94E2F7842B8C938EC08B81882381
:100D7000A9F4A7E3B0E0E7E3F0E08081482F8A819F
:100D8000282F30E081E090E0022E02C0880F991FEA
:100D90000A94E2F7809584238C9376C08B8181300E
:100DA00009F072C0A7E3B0E0E7E3F0E08081482FEC
:100DB0008A81282F30E081E090E0022E02C0880F67
:100DC000991F0A94E2F7842B8C935EC08B81882351
:100DD000A9F4A4E3B0E0E4E3F0E08081482F8A8145
:100DE000282F30E081E090E0022E02C0880F991F8A
:100DF0000A94E2F7809584238C9346C08B818130DE
:100E000009F042C0A4E3B0E0E4E3F0E08081482FC1
:100E10008A81282F30E081E090E0022E02C0880F06
:100E2000991F0A94E2F7842B8C932EC08B81882320
:100E3000A9F4A1E3B0E0E1E3F0E08081482F8A81EA
:100E4000282F30E081E090E0022E02C0880F991F29
:100E50000A94E2F7809584238C9316C08B818130AD
:100E600099F4A1E3B0E0E1E3F0E08081482F8A81CA
:100E7000282F30E081E090E0022E02C0880F991FF9
:100E80000A94E2F7842B8C930F900F900F900F90A1
:100E90000F90CF91DF910895DF93CF9300D000D0D2
:100EA0000F92CDB7DEB789836A834B838981282F60
:100EB00030E03D832C838C819D818130910509F444
:100EC00047C02C813D81223031052CF48C819D81DD
:100ED000009771F0CBC02C813D812230310509F49F
:100EE00067C08C819D818330910509F491C0BEC09B
:100EF0008B818130A1F4ABE3B0E0EBE3F0E08081E3
:100F0000482F8A81282F30E081E090E0022E02C035
:100F1000880F991F0A94E2F7842B8C93A7C08B81CA
:100F2000882309F0A3C0ABE3B0E0EBE3F0E08081FD
:100F3000482F8A81282F30E081E090E0022E02C005
:100F4000880F991F0A94E2F7809584238C938EC0B2
:100F50008B818130A1F4A8E3B0E0E8E3F0E0808188
:100F6000482F8A81282F30E081E090E0022E02C0D5
:100F7000880F991F0A94E2F7842B8C9377C08B819A
:100F8000882309F073C0A8E3B0E0E8E3F0E08081D3
:100F9000482F8A81282F30E081E090E0022E02C0A5
:100FA000880F991F0A94E2F7809584238C935EC082
:100FB0008B818130A1F4A5E3B0E0E5E3F0E080812E
:100FC000482F8A81282F30E081E090E0022E02C075
:100FD000880F991F0A94E2F7842B8C9347C08B816A
:100FE000882309F043C0A5E3B0E0E5E3F0E08081A9
:100FF000482F8A81282F30E081E090E0022E02C045
:10100000880F991F0A94E2F7809584238C932EC051
:101010008B818130A1F4A2E3B0E0E2E3F0E08081D3
:10102000482F8A81282F30E081E090E0022E02C014
:10103000880F991F0A94E2F7842B8C9317C08B8139
:101040008823A1F4A2E3B0E0E2E3F0E08081482F3E
:101050008A81282F30E081E090E0022E02C0880FC4
:10106000991F0A94E2F7809584238C930F900F9038
:101070000F900F900F90CF91DF910895DF93CF9352
:1010800000D000D00F92CDB7DEB78A836B838A8100
:10109000282F30E03D832C834C815D814130510508
:1010A00041F18C819D818230910534F42C813D8108
:1010B0002115310561F052C04C815D8142305105EE
:1010C00051F18C819D8183309105B9F147C0E9E3ED
:1010D000F0E08081282F30E08B81882F90E0A901FB
:1010E00002C0559547958A95E2F7CA0181708983B8
:1010F00035C0E6E3F0E08081282F30E08B81882F37
:1011000090E0A90102C0559547958A95E2F7CA017A
:101110008170898323C0E3E3F0E08081282F30E0F1
:101120008B81882F90E0A90102C0559547958A953B
:10113000E2F7CA018170898311C0E0E3F0E08081A9
:10114000282F30E08B81882F90E0A90102C05595AF
:1011500047958A95E2F7CA018170898389810F904A
:101160000F900F900F900F90CF91DF910895DF9324
:10117000CF9300D000D0CDB7DEB789836A83898151
:10118000282F30E03C832B838B819C81813091051B
:10119000D1F02B813C81223031052CF48B819C8154
:1011A000009761F01EC02B813C812230310581F017
:1011B0008B819C818330910581F013C0EAE3F0E0DC
:1011C0008A8180830EC0E7E3F0E08A81808309C0D2
:1011D000E4E3F0E08A81808304C0E1E3F0E08A8107
:1011E00080830F900F900F900F90CF91DF91089513
:1011F000DF93CF9300D000D0CDB7DEB789836A8369
:101200008981282F30E03C832B838B819C81813026
:101210009105D1F02B813C81223031052CF48B815A
:101220009C81009761F01EC02B813C8122303105EA
:1012300081F08B819C818330910581F013C0EBE3B9
:10124000F0E08A8180830EC0E8E3F0E08A81808349
:1012500009C0E5E3F0E08A81808304C0E2E3F0E0C6
:101260008A8180830F900F900F900F90CF91DF9124
:101270000895DF93CF93CDB7DEB7E8970FB6F89414
:10128000DEBF0FBECDBF81E060E041E00E945A06A4
:1012900081E061E041E00E945A0680E06FEF0E9429
:1012A000B70880E090E0A8ECB2E48DAB9EABAFABAA
:1012B000B8AF6DA97EA98FA998AD20E030E04AEFC4
:1012C00054E40E941F02DC01CB0189AB9AABABABAB
:1012D000BCAB69A97AA98BA99CA920E030E040E8C1
:1012E0005FE30E94790388232CF481E090E098ABBF
:1012F0008FA73FC069A97AA98BA99CA920E03FEFDD
:101300004FE757E40E94190318164CF56DA97EA902
:101310008FA998AD20E030E040E251E40E941F0226
:10132000DC01CB01BC01CD010E944900DC01CB01F5
:1013300098AB8FA70FC088EC90E09EA78DA78DA5D6
:101340009EA50197F1F79EA78DA78FA598A9019754
:1013500098AB8FA78FA598A9009769F714C069A9C2
:101360007AA98BA99CA90E944900DC01CB0198AB0A
:101370008FA78FA598A99CA78BA78BA59CA5019744
:10138000F1F79CA78BA788E30E942E0B80E090E0EA
:10139000A0E8BFE38FA398A7A9A7BAA76FA178A5D4
:1013A00089A59AA520E030E04AEF54E40E941F028C
:1013B000DC01CB018BA39CA3ADA3BEA36BA17CA13D
:1013C0008DA19EA120E030E040E85FE30E94790318
:1013D00088232CF481E090E09AA389A33FC06BA1FD
:1013E0007CA18DA19EA120E03FEF4FE757E40E9432
:1013F000190318164CF56FA178A589A59AA520E0C8
:1014000030E040E251E40E941F02DC01CB01BC014C
:10141000CD010E944900DC01CB019AA389A30FC032
:1014200088EC90E098A38F8F8F8D98A10197F1F7AA
:1014300098A38F8F89A19AA101979AA389A389A1C3
:101440009AA1009769F714C06BA17CA18DA19EA100
:101450000E944900DC01CB019AA389A389A19AA12A
:101460009E8F8D8F8D8D9E8D0197F1F79E8F8D8F25
:101470008CE00E942E0B80E090E0A0E8BFE3898F13
:101480009A8FAB8FBC8F698D7A8D8B8D9C8D20E070
:1014900030E04AEF54E40E941F02DC01CB018D8B47
:1014A0009E8BAF8BB88F6D897E898F89988D20E058
:1014B00030E040E85FE30E94790388232CF481E068
:1014C00090E09C8B8B8B3FC06D897E898F89988D36
:1014D00020E03FEF4FE757E40E94190318164CF540
:1014E000698D7A8D8B8D9C8D20E030E040E251E457
:1014F0000E941F02DC01CB01BC01CD010E9449000A
:10150000DC01CB019C8B8B8B0FC088EC90E09A8B1D
:10151000898B89899A890197F1F79A8B898B8B89B5
:101520009C8901979C8B8B8B8B899C89009769F791
:1015300014C06D897E898F89988D0E944900DC01D5
:10154000CB019C8B8B8B8B899C89988B8F878F850C
:1015500098890197F1F7988B8F8781E00E942E0B75
:1015600080E090E0A0E0B0E48B879C87AD87BE87E9
:101570006B857C858D859E8520E030E04AEF54E4C4
:101580000E941F02DC01CB018F839887A987BA874D
:101590006F81788589859A8520E030E040E85FE3B7
:1015A0000E94790388232CF481E090E09E838D8350
:1015B0003FC06F81788589859A8520E03FEF4FE7AE
:1015C00057E40E94190318164CF56B857C858D85B0
:1015D0009E8520E030E040E251E40E941F02DC01E1
:1015E000CB01BC01CD010E944900DC01CB019E83EF
:1015F0008D830FC088EC90E09C838B838B819C81D2
:101600000197F1F79C838B838D819E8101979E8347
:101610008D838D819E81009769F714C06F817885D5
:1016200089859A850E944900DC01CB019E838D83C8
:101630008D819E819A83898389819A810197F1F7AF
:101640009A83898386E00E942E0BE8960FB6F89461
:10165000DEBF0FBECDBFCF91DF910895DF93CF9353
:10166000CDB7DEB76D970FB6F894DEBF0FBECDBF16
:101670008D8F81E060E040E00E944C0780E06D8D3E
:101680000E94F80881E061E041E00E944C0780E0A0
:1016900090E0A0E8BFE3898F9A8FAB8FBC8F698DF4
:1016A0007A8D8B8D9C8D20E030E04AEF54E40E94CF
:1016B0001F02DC01CB018D8B9E8BAF8BB88F6D89A8
:1016C0007E898F89988D20E030E040E85FE30E94BA
:1016D000790388232CF481E090E09C8B8B8B3FC0B6
:1016E0006D897E898F89988D20E03FEF4FE757E421
:1016F0000E94190318164CF5698D7A8D8B8D9C8D7F
:1017000020E030E040E251E40E941F02DC01CB0106
:10171000BC01CD010E944900DC01CB019C8B8B8B6D
:101720000FC088EC90E09A8B898B89899A89019700
:10173000F1F79A8B898B8B899C8901979C8B8B8B7A
:101740008B899C89009769F714C06D897E898F8980
:10175000988D0E944900DC01CB019C8B8B8B8B897F
:101760009C89988B8F878F8598890197F1F7988B43
:101770008F8781E061E040E00E944C0780E090E0CC
:10178000A0EAB0E48B879C87AD87BE876B857C859C
:101790008D859E8520E030E04AEF54E40E941F02D0
:1017A000DC01CB018F839887A987BA876F81788501
:1017B00089859A8520E030E040E85FE30E94790364
:1017C00088232CF481E090E09E838D833FC06F815D
:1017D000788589859A8520E03FEF4FE757E40E949E
:1017E000190318164CF56B857C858D859E8520E048
:1017F00030E040E251E40E941F02DC01CB01BC0159
:10180000CD010E944900DC01CB019E838D830FC076
:1018100088EC90E09C838B838B819C810197F1F70E
:101820009C838B838D819E8101979E838D838D8187
:101830009E81009769F714C06F81788589859A85A4
:101840000E944900DC01CB019E838D838D819E81A6
:101850009A83898389819A810197F1F79A83898391
:101860006D960FB6F894DEBF0FBECDBFCF91DF915E
:101870000895DF93CF93CDB7DEB76D970FB6F89489
:10188000DEBF0FBECDBF8D8F81E060E041E00E94E2
:101890004C0780E06D8D0E94F80881E061E041E036
:1018A0000E944C0780E090E0A0E8BFE3898F9A8F08
:1018B000AB8FBC8F698D7A8D8B8D9C8D20E030E055
:1018C0004AEF54E40E941F02DC01CB018D8B9E8BFA
:1018D000AF8BB88F6D897E898F89988D20E030E03D
:1018E00040E85FE30E94790388232CF481E090E0D4
:1018F0009C8B8B8B3FC06D897E898F89988D20E072
:101900003FEF4FE757E40E94190318164CF5698D15
:101910007A8D8B8D9C8D20E030E040E251E40E9476
:101920001F02DC01CB01BC01CD010E944900DC019A
:10193000CB019C8B8B8B0FC088EC90E09A8B898BB2
:1019400089899A890197F1F79A8B898B8B899C8970
:1019500001979C8B8B8B8B899C89009769F714C0AE
:101960006D897E898F89988D0E944900DC01CB01A9
:101970009C8B8B8B8B899C89988B8F878F85988983
:101980000197F1F7988B8F8781E061E040E00E943A
:101990004C0780E090E0A0EAB0E48B879C87AD879D
:1019A000BE876B857C858D859E8520E030E04AEF83
:1019B00054E40E941F02DC01CB018F839887A98722
:1019C000BA876F81788589859A8520E030E040E884
:1019D0005FE30E94790388232CF481E090E09E83EA
:1019E0008D833FC06F81788589859A8520E03FEFA0
:1019F0004FE757E40E94190318164CF56B857C8558
:101A00008D859E8520E030E040E251E40E941F0277
:101A1000DC01CB01BC01CD010E944900DC01CB01FE
:101A20009E838D830FC088EC90E09C838B838B8199
:101A30009C810197F1F79C838B838D819E81019717
:101A40009E838D838D819E81009769F714C06F817D
:101A5000788589859A850E944900DC01CB019E83A7
:101A60008D838D819E819A83898389819A81019753
:101A7000F1F79A8389836D960FB6F894DEBF0FBE97
:101A8000CDBFCF91DF910895DF93CF9300D00F9218
:101A9000CDB7DEB79B838A8319820EC08981282F38
:101AA00030E08A819B81FC01E20FF31F80810E945C
:101AB000390C89818F5F89838981282F30E08A8161
:101AC0009B81FC01E20FF31F8081882339F70F907F
:101AD0000F900F90CF91DF910895DF93CF9300D0B7
:101AE0000F92CDB7DEB78A836B838A81882319F47E
:101AF0008B81898306C08A81813019F48B81805C57
:101B00008983898180580E942E0B0F900F900F902F
:101B1000CF91DF910895DF93CF93CDB7DEB7649770
:101B20000FB6F894DEBF0FBECDBF698B7A8B8B8B5F
:101B30009C8B8AE0FE013796DF01982F1D929A95C3
:101B4000E9F71E821D8289899A89AB89BC89009731
:101B5000A105B10519F480E30E94390C89899A899D
:101B6000AB89BC890097A105B10509F455C032C005
:101B700089899A89AB89BC892AE030E040E050E04D
:101B8000BC01CD010E94770FDC01CB0189839A83D0
:101B9000AB83BC832D813E814981CE010796FC0138
:101BA000E20FF31F408389899A89AB89BC892AE0B7
:101BB00030E040E050E0BC01CD010E94770FDA0137
:101BC000C901898B9A8BAB8BBC8B8D819E810196D1
:101BD0009E838D8389899A89AB89BC890097A105E9
:101BE000B10531F68D819E8101979E838D8310C052
:101BF0002D813E81CE010796FC01E20FF31F80810B
:101C0000805D0E94390C8D819E8101979E838D831A
:101C10008D819E81992364F764960FB6F894DEBF98
:101C20000FBECDBFCF91DF910895DF93CF93CDB796
:101C3000DEB727970FB6F894DEBF0FBECDBF9C83EB
:101C40008B836D834E832F838E816F810E946D0DF8
:101C50008D810E94390C8D81883018F58D81882FF7
:101C600090E0880F991F880F991F880F991F8A830A
:101C70008A8180648A838A810E942E0B19820EC019
:101C80008981282F30E08B819C81FC01E20FF31FBA
:101C900080810E94390C89818F5F89838981883096
:101CA00078F382E00E942E0B27960FB6F894DEBFE1
:101CB0000FBECDBFCF91DF910895DF93CF93CDB706
:101CC000DEB783E060E041E00E945A0683E061E015
:101CD00041E00E945A0683E062E041E00E945A0619
:101CE00083E063E041E00E945A0683E064E040E064
:101CF0000E945A0683E065E040E00E945A0683E0B5
:101D000066E040E00E945A0683E067E040E00E94FF
:101D10005A0683E06FEF0E94F808CF91DF91089593
:101D2000DF93CF93CDB7DEB7A1970FB6F894DEBFA0
:101D30000FBECDBF8FEF8B831C8281E08D8382E04D
:101D40008E8383E08F8384E0888785E0898786E0BF
:101D50008A8787E08B87CE010C969E8F8D8FEFE769
:101D6000F0E0F8A3EF8FF0E1F9A3EF8DF8A1008088
:101D70008F8D98A1019698A38F8FED8DFE8D008297
:101D80008D8D9E8D01969E8F8D8F99A1915099A3D7
:101D9000E9A1EE2351F71A8272C08A81282F30E020
:101DA000CE010496FC01E20FF31F908183E0692FBE
:101DB00040E00E944C0719824DC08981282F30E0F5
:101DC000CE010896FC01E20FF31F908183E0692F9A
:101DD0000E943E088823D9F58981282F30E08A8126
:101DE000482F50E0220F331F220F331FCE010196E0
:101DF000820F931F840F951FFC013B9680818B837C
:101E000014C08981282F30E08A81482F50E0220FAA
:101E1000331F220F331FCE010196820F931F840FB1
:101E2000951FFC013B9680818B838981282F30E0B0
:101E3000CE010896FC01E20FF31F908183E0692F29
:101E40000E943E088823E9F2FB81FC8F1EC0898135
:101E50008F5F89838981843008F4AFCF8A81282FEE
:101E600030E0CE010496FC01E20FF31F908183E085
:101E7000692F41E00E944C078A818F5F8A838A81A3
:101E8000843008F48ACF8B818C8F8C8DA1960FB60D
:101E9000F894DEBF0FBECDBFCF91DF910895DF93E1
:101EA000CF9300D0CDB7DEB783E060E040E00E9482
:101EB0005A0683E061E041E00E945A060E94390917
:101EC0000E94A30580E690E00E940F060E9438065B
:101ED0009A83898389819A810E94440D81E060E020
:101EE0000E946D0D82E790E00E94440DFFCFA1E2B9
:101EF0001A2EAA1BBB1BFD010DC0AA1FBB1FEE1F84
:101F0000FF1FA217B307E407F50720F0A21BB30BCE
:101F1000E40BF50B661F771F881F991F1A9469F74A
:101F200060957095809590959B01AC01BD01CF01A6
:101F300008952F923F924F925F926F927F928F926D
:101F40009F92AF92BF92CF92DF92EF92FF920F9348
:101F50001F93CF93DF93CDB7DEB7CA1BDB0B0FB652
:101F6000F894DEBF0FBECDBF09942A88398848880F
:101F70005F846E847D848C849B84AA84B984C884A5
:101F8000DF80EE80FD800C811B81AA81B981CE0F9C
:101F9000D11D0FB6F894DEBF0FBECDBFED01089581
:041FA000F894FFCFE3
:101FA400456E74657220796F7572206E616D653A45
:101FB4002000444F4E4500000000000000000001D6
:101FC400303D2B3132332D3435362A3738392F0012
:00000001FF
