:100000000C942A000C9434000C9434000C943400AA
:100010000C9434000C9434000C9434000C94340090
:100020000C9434000C9434000C9434000C94340080
:100030000C9434000C9434000C9434000C94340070
:100040000C9434000C9434000C9434000C94340060
:100050000C94340011241FBECFE5D8E0DEBFCDBF25
:100060000E94F2010C94F8010C940000813031F1EF
:10007000813038F0823009F43EC0833009F072C01C
:1000800056C0442321F0413009F06CC00CC02AB3A3
:1000900081E090E002C0880F991F6A95E2F7809591
:1000A00082238ABB08952AB381E090E002C0880FC2
:1000B000991F6A95E2F7282B2ABB0895442321F063
:1000C000413009F04FC00CC027B381E090E002C07E
:1000D000880F991F6A95E2F78095822387BB089560
:1000E00027B381E090E002C0880F991F6A95E2F77C
:1000F000282B27BB0895442319F0413099F50CC0F3
:1001000024B381E090E002C0880F991F6A95E2F75E
:100110008095822384BB089524B381E090E002C0DF
:10012000880F991F6A95E2F7282B24BB0895442372
:1001300019F04130B9F40CC021B381E090E002C065
:10014000880F991F6A95E2F78095822381BB0895F5
:1001500021B381E090E002C0880F991F6A95E2F711
:10016000282B21BB0895813031F1813038F0823065
:1001700009F43EC0833009F072C056C0442321F018
:10018000413009F06CC00CC02BB381E090E002C09C
:10019000880F991F6A95E2F7809582238BBB08959B
:1001A0002BB381E090E002C0880F991F6A95E2F7B7
:1001B000282B2BBB0895442321F0413009F04FC078
:1001C0000CC028B381E090E002C0880F991F6A95A7
:1001D000E2F78095822388BB089528B381E090E000
:1001E00002C0880F991F6A95E2F7282B28BB089553
:1001F000442319F0413099F50CC025B381E090E01B
:1002000002C0880F991F6A95E2F78095822385BB0B
:10021000089525B381E090E002C0880F991F6A9588
:10022000E2F7282B25BB0895442319F04130B9F497
:100230000CC022B381E090E002C0880F991F6A953C
:10024000E2F78095822382BB089522B381E090E09B
:1002500002C0880F991F6A95E2F7282B22BB0895E8
:10026000813051F0813030F0823041F0833079F0CC
:1002700080E0089589B303C086B301C083B390E0E2
:1002800002C0959587956A95E2F78170089580B3CD
:1002900090E002C0959587956A95E2F78170089580
:1002A000813049F0813028F0823039F0833041F4D8
:1002B00006C06ABB089567BB089564BB089561BB1F
:1002C0000895813049F0813028F0823039F0833050
:1002D00041F406C06BBB089568BB089565BB0895E3
:1002E00062BB08951F93182F81E060E041E00E94F7
:1002F000B30080E0612F0E94610181E061E041E094
:100300000E94B30080ED97E00197F1F781E061E092
:1003100040E00E94B3001F9108951F93CF93DF9395
:10032000EC0110E003C00E9472011F5FFE01E10FAB
:10033000F11D80818823B9F7DF91CF911F91089536
:100340001F93182F81E060E040E00E94B30080E03E
:10035000612F0E94610181E061E041E00E94B300F1
:1003600080ED97E00197F1F781E061E040E00E94C5
:10037000B3001F9108950F931F9381E090E060E018
:1003800070E041E050E00E94360081E090E061E0E2
:1003900070E041E050E00E94360080E06FEF0E9484
:1003A000500188EE93E028EC30E0F9013197F1F745
:1003B0000197D9F788E30E94A00100ED17E0C8017A
:1003C0000197F1F78CE00E94A001C8010197F1F7B5
:1003D00081E00E94A00180EA9FE00197F1F71F9160
:1003E0000F9108950E94BB0181E60E947201FFCF28
:0403F000F894FFCFAF
:00000001FF
